:020000041000EA
:1000000000B5324B212058609868022188439860DF
:10001000D860186158612E4B002199600221596106
:100020000121F02299502B49196001219960352056
:1000300000F044F80222904214D00621196600F024
:1000400034F8196E01211966002018661A6600F04E
:100050002CF8196E196E196E052000F02FF8012189
:100060000842F9D1002199601B49196000215960AB
:100070001A491B48016001219960EB211966A021F2
:10008000196600F012F800219960164914480160C1
:100090000121996001BC002800D000471248134993
:1000A000086003C880F30888084703B5996A0420EC
:1000B0000142FBD001200142F8D103BD02B5186610
:1000C0001866FFF7F2FF186E186E02BD00000240BE
:1000D000000000180000070000035F00212200005C
:1000E000F4000018222000A00001001008ED00E03C
:1000F00000000000000000000000000074B24E7A12
:1001000000200420F7010010C3010010C5010010F9
:10011000C1010010C1010010C1010010C101001097
:10012000C1010010C1010010C1010010C701001081
:10013000C1010010C1010010C9010010CB01001065
:10014000CD010010CD010010CD010010CD01001037
:10015000CD010010CD010010CD010010CD01001027
:10016000CD010010CD010010CD010010CD01001017
:10017000CD010010CD010010CD010010CD01001007
:10018000CD010010CD010010CD010010CD010010F7
:10019000CD010010CD010010CD010010CD010010E7
:1001A000CD010010CD010010CD010010CD010010D7
:1001B000CD010010CD010010CD010010CD010010C7
:1001C00000BE00BE00BE00BE00BE00BEEFF3058054
:1001D000103800BEF2EB8871A43F0010C83F001039
:1001E0003402001090A31AE700201F49086006C8D7
:1001F00081F3088810471D48006800282FD10DA4FE
:100200000ECC002902D000F012F8F9E71849194A7B
:10021000002000E001C19142FCD1174988471749ED
:1002200088471749884700BEFDE701C901C29A42C5
:10023000FBD37047C83F0010C00000200C0B00200B
:10024000144A00100000042000000420144A00108A
:10025000001004200010042000000000704709482E
:1002600001F066FD0047000008ED00E0000000D04E
:10027000100B0020640F0020751B001055030010A8
:100280009D1C00105756000006005250ABB360533F
:100290008C3A001006005250861C03029C3A001053
:1002A000060052505422A29DA43A0010050052505C
:1002B000DE65F468144A0010F8B5C0460448054BE2
:1002C00010B5834203D0044B002B00D0984710BDDB
:1002D0000C0B00200C0B0020000000000648074912
:1002E000091A8B10C90FC91810B5491003D0044B57
:1002F000002B00D0984710BD0C0B00200C0B0020E9
:100300000000000010B5074C2378002B09D1FFF73F
:10031000D5FF054B002B02D0044800E000BF0123AD
:10032000237010BD380E002000000000B839001006
:10033000054B10B5002B03D00449054800E000BF71
:10034000FFF7CCFF10BDC046000000003C0E0020AF
:10035000B8390010F0B583B001F05EFF192000F04D
:1003600079F8D02380221B0692045A625A6102F067
:1003700005FE00282DD102F079F902F023FB1A487E
:1003800001F0C2FE80200121C00001F0EDFD041E3D
:1003900026D0FF23402200938021002302F008FD95
:1003A000124D134F134E802200212000D20001F085
:1003B000F5FD002332000021019300203B00009551
:1003C00002F018FD200002F05BFBFA2002F07EFD37
:1003D000E9E7094801F098FE0120404203B0F0BD72
:1003E000064801F091FEF7E7D0390010FFFF00004A
:1003F000A8020020103A0010B8390010E8390010A7
:10040000094A10B594464024830063441A68C0002A
:100410006240803414408022520113431C60034B1D
:100420009C466044416010BD04C001400040014052
:10043000074B80009C4660440368C90092000A4351
:100440005A400C231A4080235B0103431A60704713
:1004500004C001400123D0228340120693629361BD
:10046000094A40219446830063441A68C0004A4008
:10047000803111408022520113431960034B9C4686
:10048000052360444360704704C0014000400140C0
:10049000024B18688007C00F7047C04600C0064076
:1004A00070B5EFF3108C72B60D4D2B68002BFCD09D
:1004B000BFF35F8F0724CB08C618C05C01230C4034
:1004C000A3401C000440034207D118433070BFF31F
:1004D0005F8F2C608CF3108870BD100001F0E2FB80
:1004E0002C0100D00021044B044ABFF35F8F02C3EC
:1004F0009342FAD17047C046000100D0800100D07D
:10050000044A1078431CDBB2172B00D91023137058
:100510007047C046E801002001238340002904D031
:10052000034A1360034A13607047034A1360FBE7F2
:1005300080E200E000E100E080E100E0024B1030EA
:100540009B688000C058704700ED00E070B50D005A
:10055000EFF3108672B60F4A1368002BFCD0BFF37E
:100560005F8F0D4B10309B6884001B590B4A9342E0
:1005700003D09D4201D001F0ADFB074B9B681D519C
:10058000BFF35F8FBFF35F8F0022024B1A6086F3C9
:10059000108870BD240100D000ED00E0CD010010F6
:1005A000F0B5DE4657464E464546E0B50C0083B0F2
:1005B000EFF3108872B65D4A1368002BFCD0BFF3CE
:1005C0005F8F5B4B5B499A68030010339F00D559DE
:1005D0008D4239D0A5424AD0574EAA1B2F2A33D874
:1005E00001229246824091464846544A1268104081
:1005F00001904846524A1060BFF35F8FEFF30582C7
:100600009346002A35D0934201D001F063FB2A00C3
:1006100053469A439068844208D175E04B005B18BA
:100620009B00F3189868A04234D01A000621515656
:100630000029F3DA844253D0019B002B26D04A468E
:10064000404B1A603D4B1A60394B9B68DD51BFF33C
:100650005F8FBFF35F8F0022344B1A6088F31088DE
:1006600003B0F0BCBB46B246A946A046F0BD0D00A3
:10067000EAE72A0053469A4390688442D6D106207E
:1006800010561300002809DA0D0031E04A462C4BC1
:100690001A60D9E706201856002822DB42001118FC
:1006A000890074188A46A1689960E179D971062198
:1006B00061569971002925DBA488F11A6405241577
:1006C00054440919E0240905490D24022143998065
:1006D00013181D4A9B001178F31899711070ABE73D
:1006E00013005946002914D1FF31917117499180A7
:1006F00015490A789A71164A9B1B5B415A43120DA1
:100700000A7099E71349E2E7062010561300002803
:10071000C4DA114A1149D21A083A5002400D014375
:1007200099800F4952080A43DA8085E7240100D0F6
:1007300000ED00E0CD010010EC01002000E100E040
:1007400080E100E080E200E0610F002001BDFFFFDA
:10075000AAAA000001BD00002602002000F0FFFF51
:1007600000F8FFFF70B5EFF3058101240443EFF3B8
:10077000108C72B6214A1368002BFCD0BFF35F8F38
:100780001F4B05001F4AED1A6D416A43120D1E4DA5
:100790008900AE6852B27658A6421CD0062159563E
:1007A00091421CD012215956914222D01E215956F5
:1007B000914220D02A2159560324914210D0134B44
:1007C00019781A708171BFF35F8F00220B4B1A608A
:1007D0008CF3108870BDAB680D4C5C50EFE70024C3
:1007E0006100091989005B18FF21997109499980F5
:1007F000E5E70124F4E70224F2E7C046240100D033
:10080000EC010020AAAA000000ED00E0610F00202A
:10081000CD01001001BDFFFF054B064A1360064ADB
:10082000136053609360D3601361536193617047A9
:100830008080808000E400E004E400E0024B9C46FD
:1008400061448900016070474000003410B5040025
:10085000FFF756FE01002000FFF7F0FFFF23237192
:10086000BFF35F8F10BDC04610B50400FFF748FE10
:1008700001002000FFF7E2FFFF23A380BFF35F8F9B
:1008800010BDC04683680B4810B58446614462447D
:100890001201090159189B185C684A6801209442AA
:1008A00001D802D00020C0B210BD1A680B689A426D
:1008B000F9D8F7E7FFFFFF0F0A4B1968EFF3108035
:1008C00072B60A68002AFCD0BFF35F8F1B68BFF3C3
:1008D0005F8F00221A6080F3108840BF0020002143
:1008E0007047C046400F0020F8B5574645464E4673
:1008F000DE46E0B598460CAB1C780DAB1B780700C4
:1009000091469A460568002C5ED1AC7B002C3BD00A
:10091000660029683619033E89194B78AB73002BA2
:1009200000D1EB7300238B704B700B702D4BE218D2
:10093000BB6812019B184A461A6042465A600A9ADE
:100940009A600B9ADA6000238B704B700B706B7B94
:100950009B46002B2BD022005946A8686B6898470D
:100960002A68002816D05B4658465B005B449619FF
:10097000033BB070D118D35C002B00D073705B4682
:100980000C706B735C4513D0F0BCBB46B246A946F5
:10099000A046F8BD5B465B005B44033BD3189C70EC
:1009A0009119925D002A00D05A705B460B706C73EF
:1009B0004A464346387D00F0E3FB051E0AD10E9BF4
:1009C000002BE1D01D70DFE7660029683619033E71
:1009D0008919ABE75346002BF1D12100386800F0AC
:1009E000F3FDECE7FFFFFF0FF0B5DE4657464E463E
:1009F00045460023E0B58BB00893684B8200D4587D
:100A000000239B46099000F027FB02000B00606862
:100A1000EFF3108A72B6564601680029FCD0B24640
:100A2000BFF35F8F21684F7B8C46002F2ED0A568C7
:100A30005B49A9467918090189444946086849680B
:100A400005000E00AD1A9E41002E5FDD02000B0076
:100A5000099800F095FB0023002299460023069296
:100A60000793002398466368BFF35F8F5A461A6066
:100A70008AF310884346002B12D10028C3D10BB053
:100A8000F0BCBB46B246A946A046F0BD00230022FA
:100A90009946002306920793002300209846E2E738
:100AA000089B494618023843C047626805000E009B
:100AB000EFF3108A72B61368002BFCD0BFF35F8F80
:100AC000002E41DB2B00334302D02369002B56D18B
:100AD0002368D97B002905D01A68480041185218AC
:100AE000033A57709A7B002A00D19F73DF73E26844
:100AF000013FD35D0133D3555B4623616368BFF388
:100B00005F8F5A461A608AF310887CE7002E02D164
:100B1000002D00D09AE70021604600F0D3FC4B4640
:100B20001A685B68069207934B469B6898464B464B
:100B3000DB689946E368DB19013B1B7808931B02CD
:100B40000343236100208EE72369002BC0D0069A5F
:100B5000079B8021521BB34109068B4202D301221D
:100B6000104B5242002104910131039149460191F9
:100B70004146200002970091FFF7B6FEBCE700F067
:100B80006BFA2A00330012184B41802109068B4270
:100B9000E8D30122034B5242E4E7C0462C0F002069
:100BA000FFFFFF0FFFFFFF7F10B5144C6368002BA2
:100BB00004D00A211248FFF741FE10BD2300114A5C
:100BC0001021206800F094FB032000F039FA032084
:100BD00000F03EFB03200C4900F08CFAFFF790FC7C
:100BE0000A4B9C4603232375D0231B061B686044D5
:100BF0006375074B80006060DC60DAE73402002038
:100C0000400F002085080010E90900104000003462
:100C10002C0F0020F0B557464E464546DE46E0B55F
:100C200085B0019310AB1B780600039300239A460E
:100C3000984600927268EFF3108B72B61368002B1F
:100C4000FCD0BFF35F8F3568AC7B002C00D16FE028
:100C500067002B683F19033FDB195A78AA73002AF3
:100C600000D1EA734B4AA118B268090152180098E2
:100C70000199106051600E9991600F99D1604246C0
:100C80009A705A701A706B7B9946002B00D170E0F5
:100C900022004946A8686B6898472A6800285BD0FC
:100CA0004B4648465B004B44D719033BB870D118FC
:100CB000D35C002B00D07B704B460C706B734C45A3
:100CC00058D0F3681B19013B18787368BFF35F8F26
:100CD00042461A608BF310885346002B08D100025D
:100CE000204305B0F0BCBB46B246A946A046F0BDC5
:100CF000039B002B4BD00E9B00200F9998470300BD
:100D000004000D000B4342D000291ADA009A019B1F
:100D1000121BAB410092019380221206934204D32E
:100D200001231D4C5B4200930194039B9A4681E78B
:100D30007368BFF35F8F1C608BF310880120404203
:100D4000CFE700F089F9802224184D411206009463
:100D500001959542E9D3E3E74B465B004B44033BE7
:100D6000D3189C70D119D25D002A00D05A704B461E
:100D70000B706C73307D009A019B00F001FA824683
:100D800000289ED02100306800F01EFC99E700206A
:100D9000A7E7C046FFFFFF0FFFFFFF7FF0B504008E
:100DA0000D0006267642F717C64636196F4100B584
:100DB00084B08F4214D811D000F04EF932003B00BD
:100DC000121A8B41002B15DC002B3ED0200029008D
:100DD00000F080F904B080BCB846F0BD8642EBD983
:100DE0000026002700F038F932003B00121A8B4130
:100DF000002BE9DD002302930193154B3200009391
:100E000014483B00FFF706FF0028DFDB002398466D
:100E1000BC46114A114F7B6A9C4504D8B96AB1425D
:100E2000D4D29C45D2D11168EFF3108072B60B6812
:100E3000002BFCD0BFF35F8F1368BFF35F8F414679
:100E4000196080F3108820BFE5E7002ABED0D1E703
:100E5000B908001034020020400F00200040054077
:100E600070B5060000F0F8F8FA2204000D00002327
:100E700030000021920001F015F88023001969412B
:100E80001B06994202D3012002494042FFF786FF28
:100E900070BDC046FFFFFF7FF0B5EFF30583CE4680
:100EA000474680B505000C0085B0002B0DD0324AB6
:100EB0000020536A9C4203D8926A0130AA4232D37E
:100EC00005B0C0BCB946B046F0BD2C4E02930193AC
:100ED0002B4B0200009330000B00FFF79BFE031E1C
:100EE000E5DD20BF7168EFF3108772B60A68002A4B
:100EF000FCD0BFF35F8FDAB294463068427B624524
:100F000016D0FF2201681A4089465100884649469A
:100F1000904441440339897800290BD132699342C6
:100F200010D131610EE0E31A5A1E9341D8B2C7E7DF
:100F3000FF221A40F1681B0A8A18013A1278DBB2C4
:100F40009A4214D07368BFF35F8F00221A6087F350
:100F50001088094B00205A6A9442B1D89B6A01302C
:100F6000AB42ADD2A41A631E9C41E0B2A8E7614631
:100F700000F02AFBE6E7C0460040054034020020AE
:100F8000B9080010F0B5EFF30582D6464F46464645
:100F90001000C0B51038EFF3108872B6214C2368EA
:100FA000002BFCD0BFF35F8F0123190081401E4D41
:100FB0001F006963AA461D4D29601D4D2E78AC4661
:100FC0003500C5402F402B4215D053465F6A194B60
:100FD0008500EB589F4218D36246174B8E43EB585F
:100FE0001670BFF35F8F0022226088F31088002BF9
:100FF00006D0984704E0BFF35F8F276088F310881E
:10100000E0BCBA46B146A846F0BD0C4B92009C46E7
:10101000624413681360BFF35F8F0023236088F37B
:101020001088EDE7280100D0004005403C700540E5
:10103000620F0020480F0020C40E0020D03F054062
:1010400010B5034B01001800024AFFF729FA10BD42
:10105000600F0020203A0010034B596A0A00986A7A
:10106000596A8A42FAD170470040054070B50400C1
:101070000D00174A536A1900966A536A8B42FAD1D7
:101080003000190024184D41AB4216D813D0104B34
:101090002A005B6A9D4203D90D494B6A9342FCD3F7
:1010A000934207D10A4A02E0516A994202D1916AF9
:1010B000A142F9D370BDA642E9D9054B5B6A1C0079
:1010C0005A1CEFD0012201246442E5175242E3E7A3
:1010D00000400540064A536A9942FCD807D1044BA8
:1010E00002E05A6A914202D19A6A8242F9D3704769
:1010F0000040054070B504000D00EFF3108672B695
:101100001A4A1368002BFCD0BFF35F8F002D1BD051
:101110002000FFF713FA164981420AD02000FFF79A
:1011200015FA01212000FFF7F7F90123A340114A26
:101130001360114BA400E550BFF35F8F00220B4BEF
:101140001A6086F3108870BD0121A1400A4BA200ED
:10115000D5500A4B20001A788A4305491A70FFF7C8
:101160001FFA00212000FFF7D7F9E5E7280100D09A
:10117000850F001038600540C40E0020620F00206B
:10118000F0B54F46D6464646C0B507002B4C616ABF
:101190000D00A66A616AA942FAD18B4208D805D02F
:1011A0000120E0BCBA46B146A846F0BDB242F7D92C
:1011B000EFF3108A72B6224801680029FCD0BFF311
:1011C0005F8F0125BD401F491C4C88460978894620
:1011D0002943C9B28C46414660460870391D8900D2
:1011E00065630A511849B8004350216A002029421A
:1011F00019D0616A0800A66A616A8142FAD18B42FD
:1012000019D801D1B24216D8CC450BD00B4B1F22B6
:101210001D625D6301233A4093400C4A13604346CC
:101220004A461A700120BFF35F8F0022044B1A60F8
:101230008AF31088B5E70020F5E7C0460040054076
:10124000280100D0620F0020480F002080E200E05B
:10125000EFF3108C72B60A490B68002BFCD0BFF379
:101260005F8F01238340074A0748136202789A433D
:101270000270BFF35F8F00230B608CF31088704700
:10128000280100D000400540620F002070B5050025
:101290000E001400002923D0002A12D080686B6849
:1012A0009847296800280ED063001B197200033B81
:1012B0009219CB18033A9E7088188A5C002A11D1C3
:1012C0000470300070BD73009B196200033B12195B
:1012D000CB18033A9C7088188A5C002A05D10670E6
:1012E0002000EFE75A700470EBE75A700670F7E7DA
:1012F00030B583600023CCB2437301330473426082
:101300008373C4730D000068012C06D9421C01339D
:10131000DBB2137003329C42F9D1FF2129404B000C
:101320005B18C01800230338437030BD70B505004A
:101330000C1E07D0630001681B19033BCB185A78B9
:10134000002A01D1200070BD500080180338091810
:1013500000204E784870210058702800FFF796FF53
:10136000310004002800FFF7E1FF0600002C26D022
:101370000028E7D021003200A8686B6898472968E8
:1013800000280ED073009B196200033B1219CB1882
:10139000033A9C7088188A5C002A00D05A70067044
:1013A000D0E763001B197200033B9219CB18033A74
:1013B0009E7088188A5C002A00D05A70047034002D
:1013C000C0E7C046F0B557464546DE464E46E0B556
:1013D0000D006F0001687F19033F0400C85D83B0F2
:1013E0000192CA19002850D043001B18033BCB18A8
:1013F0005E78B446002E1AD1019E002E42D0E67BC4
:10140000002E04D073009B19CB18033B5D70A37BA7
:10141000002B00D1A573E57300282FD10023537052
:1014200003B0F0BCBB46B246A946A046F0BD720070
:101430006244033A8A1851788846002151708946DF
:101440005970320001002000FFF720FF434682461A
:10145000002B07D05B0021684344033BCB185A782C
:10146000002A16D1424651462000FFF70FFF21689F
:10147000019BCA19002BC2D10028CFD043001B18F2
:10148000033BCB1800219970C8E7019B002BB6D114
:10149000C4E7500080180338091848788346484646
:1014A0004870587041462000FFF7F0FE59468046CC
:1014B0002000FFF73BFF414602002000FFF7E6FE59
:1014C0008046CFE7F0B557464546DE464E46E0B586
:1014D00083B00191457B04006F0000687F19033FD2
:1014E000C15DC219002952D04B005B18033BC318E1
:1014F0005E78B446002E1CD1019E002E44D0E67BBF
:10150000002E04D073009B19C318033B5D70A37BAE
:10151000002B00D1A573E573002931D100232800E9
:101520005370617303B0F0BCBB46B246A946A046F7
:10153000F0BD72006244033A821850788046002061
:1015400050708146587032002000FFF79FFE4346DE
:101550008246002B07D05B0021684344033BCB1835
:101560005A78002A17D1424651462000FFF78EFED6
:10157000019B01002068C219002BC0D10029CDD0E9
:101580004B005B18033BC31800209870C6E7019B13
:10159000002BB4D1C2E750008018033809184878EE
:1015A000834648464870587041462000FFF76EFE5B
:1015B000594680462000FFF7B9FE41460200200050
:1015C000FFF764FE8046CEE770B5050000292CD0F9
:1015D000437B8B422ED04C0000686418033C0419F6
:1015E000A278002A21D053009B18033BC25CC61886
:1015F0008A4202D11BE0002A08D053009B18033B0B
:10160000C3185A788A42F6D162785A7000230122B0
:101610002800A3706370FFF7D5FE697B02002800E5
:10162000FFF734FE6873012000E0002070BD63788E
:101630003370EBE701221900FFF7C4FEF2E7C04662
:10164000F8B5CE464746040080B506200E0000F0EF
:101650001FFA051E51D0524B5249E21853425A41CB
:101660008023DB039C4692054F4B62441A604F4B2C
:101670001A6010008B689843FBD1494B4C4AE31821
:1016800059424B4180215B0049000620995200F0ED
:10169000FFF93100C00000F07DFBC30932D14022C8
:1016A000012190466162A362256BEB0736D42700C7
:1016B0008026E36A00232C3776013E433360062000
:1016C000256300F0E5F94146800000F063FB236BE1
:1016D00005009846DB073BD46023E26A5A400E338C
:1016E0001340336043462363802310229B013B4316
:1016F0001A60304B23630323A3642800C0BCB9469F
:10170000B046F8BD2C4A93423FD900232B492C4ABE
:101710006162A362256B9046EB07C8D52200C02307
:1017200030329B011343234A06201A60666AA36A7B
:10173000B601F61800F0ACF9224900F02BFBB60216
:101740000100300000F026FB0021FFF78FFCAEE720
:101750002200C02330329B011343164A06201A6030
:10176000636AA26A9B019946914400F091F94B4645
:1017700014499B02994600F00DFB0100484600F019
:1017800009FB0021FFF772FCA6E77F22990188463A
:1017900002400132520819009044130082E7C0460B
:1017A0000080FCBF00C0004000E0004000F00040AE
:1017B000580F002001030000FEFF0000FFFF0000A3
:1017C000C0FF3F004E0E000010B50C2082B000F0AC
:1017D000B5F9FEF75DFE002810D08B4B8B488B4986
:1017E0008B4A186059609860D96018615961986196
:1017F000D961186259625A6202B010BD854CA06767
:1018000000F0A4F90122844B1A60636C012BFCD117
:101810000322824B1A607F4A936B012BFCD1013368
:1018200001217F4A7F480093043300F037F90523F4
:101830007D4A009301217D4800F030F97C4B5A68C5
:10184000FF2A02D8802252005A608022734B6E4CCD
:1018500012011A602169002907D0606900F09AFA24
:10186000013043001B18033BFDD2E022704B71484E
:1018700019680A40026002221968514001320A4088
:10188000042102609A681142FCD080216A4A090151
:101890001160802252005A60684B2361684B59687E
:1018A000FF2900D85A60032201215B4B1A60644A69
:1018B00093681942FCD0E02310680340614803603C
:1018C000126803234A40022113405D4A0360936873
:1018D0001942FCD080215C4B0901196080215B4BCF
:1018E0004900516063615A4B5A68FF2A00D8596019
:1018F0008022584B12011A60E169002907D0606903
:1019000000F048FA013043001B18033BFDD2E023EE
:101910004F4A11680B4050490B6080214F4B090121
:1019200019608021394B49005160E3614C4B5A6882
:10193000FF2A00D8596080224A4B12011A60216A9E
:10194000002907D0606900F025FA013043001B1818
:10195000033BFDD2E023424A11680B4042490B6031
:101960008021424B0901196080235B005360802273
:10197000264BD20223623E4B5968914200D25A60F4
:1019800080223C4B12011A60616A002907D060690D
:1019900000F000FA013043001B18033BFDD2E023A6
:1019A000334A11680B4034490B608021334B0901E5
:1019B00019608023DB025360154B6362304B5A6819
:1019C000FF2A02D8802252005A6080222D4B120139
:1019D0001A60A169002907D0606900F0DBF90130C5
:1019E00043001B18033BFDD2E023254A11680B403E
:1019F00025490B608021254B0901196080235B007C
:101A00005360124BA361F7E6100B0020006CDC0260
:101A10001BB70000008000403CB0004030B00040E8
:101A2000002F685900800240008C864700C00240A9
:101A3000308000403090004030A00040001BB700D4
:101A40003C8000403C9000403CA00040405973075F
:101A50005480004054B000405490004054A00040D6
:101A60006080004060B000406090004060A0004096
:101A70006C8000406CB000406C9000406CA0004056
:101A80004880004048B000404890004048A00040D6
:101A9000014B8000C0587047100B0020F8B50400BF
:101AA00021481D0017000E0000F074F901003800F5
:101AB00000F070F9069B29041B0319432368002BCF
:101AC00020DB1A4B1A4DE21853425A4180235B0126
:101AD0009C461203174B62441A60174B1A6017009A
:101AE000AB689F43FBD1C022231D92011A432123DF
:101AF0002660A06013602368002BFCDA0823E160F5
:101B00001360F8BD3F2322681340B342D9D1A368C4
:101B10001B051B0D8342D4D1EE22E368D202134091
:101B20008B42CED1EDE7C046001BB7000040FDBFA1
:101B300000C0004000E0004000F000408023024A66
:101B40009B000343D362704700800540AA23064AE6
:101B50001B0113602F230549D360054B196053689F
:101B6000002BFCDA7047C0460040024000B0FA008B
:101B7000006002402C4B2D4A70B51A602C4A2D4B48
:101B80002D491A6014008B689C43FBD12B4D2C4EC1
:101B9000B54208D2013E761BB60808CD984723000F
:101BA0000134B342F9D1FFF70FFE264A214B1A60E8
:101BB000214A9368DB43DB01DD09002BF9D1402288
:101BC000214B224C224E9A675A671A67DA66B44252
:101BD00008D223682000002B20D00834FEF744FEF2
:101BE000B442F6D31B4C1C4EC022B168200000F05A
:101BF000DBF9B460FEF776FCFEF70EFEFEF7D4FFCD
:101C0000164C174EB44208D2013E361BB60808CC1B
:101C100098472B0001359E42F9D170BD0834FEF77C
:101C200015FEB442D5D3DDE700E00040BFCDFBFE9A
:101C3000FE7F3C0000F0004000C00040F80A002099
:101C4000080B0020FFFFFF0100F00140F00A002018
:101C5000F80A00200000002000ED00E0080B002042
:101C60000C0B002000BEFDE7094A030010680028A5
:101C700005D00849C3188B4207D81360704706483F
:101C80000449C31810608B42F7D901204042F5E7A0
:101C9000240F002000000420640F002010B5FFF77F
:101CA000E1FFC0460FB400B5084883B000F02CFA3D
:101CB000049B002B07D005A91800019100F018F82B
:101CC000034800F021FA0120FFF7CCFF443A00104E
:101CD000543A001010B50148FFF7E4FF583A0010DD
:101CE00010B5002800D110BD00F0C2F9FBE7C046D6
:101CF00010B5094A0300146884B0002C08D00122F2
:101D000000910648524203A9A047012004B010BD2B
:101D100000F0FAF90020F9E7280F0020E11C00107C
:101D200001480421014B184760020020511D00109A
:101D3000142310B50100188804331B88984710BD80
:101D4000162310B50100188802331B88984710BD70
:101D5000F8B54746CE4680B50F1E19D014239946D4
:101D6000043304000025012698464B461888434654
:101D700021681B88984701C4431E984101354042A1
:101D80000640AF42F1D13000C0BCB946B046F8BD04
:101D90000126F8E7114A936F9B0813D2106651662B
:101DA000002905D0FFE7FFE7FFE7516F106F70478D
:101DB00004B5002801D00020C04301F0E5FD00215A
:101DC00004BDC046F0B5146E556E576F166FFFF721
:101DD000E5FF1466556657671667F0BD000000D032
:101DE000132370B51D78012D15D010DD1D48FFF7A8
:101DF000A7FF1D4C01008022200000F0D5F8022D25
:101E00002DD01A48FFF794FF194B186070BD194B7D
:101E1000154CA364F5E7174B134C23606360A36074
:101E2000E36023616361A361E36123626362A36290
:101E3000E36223636363A363E36323646364A36470
:101E4000E36423656365A365E36523666366A36650
:101E5000E36623676367A367E367A364D1E7054B82
:101E6000A364CEE753440000380C00204C3300003C
:101E70003C0F0020791E001007B5604601880A0A51
:101E80000230DF2AFAD1C9B2820804D3028840881E
:101E90000004104300E00068014A5050039007BD61
:101EA000380C002051434343C9188C46110C83B2AF
:101EB0004B4310B4040C614392B280B2504362436E
:101EC0001C041B0C001910BC59411304120CC0183F
:101ED0005141614470470000132310B512481C782B
:101EE000FFF72EFF0100012C0AD003DD80220F48EE
:101EF00000F05AF80E48FFF71BFF0E4B186010BD9C
:101F00000A4C5422200000F04FF80B4B6365A36588
:101F1000E36523666366A366E36623676367A36777
:101F2000E3672362E361E5E753460000380D0020D4
:101F30004C3300003C0F00203D1F001007B56046E9
:101F400001880A0A0230DF2AFAD1C9B2820804D312
:101F5000028840880004104300E00068014A5050A5
:101F6000039007BD380D002010B50C0001F09AF861
:101F7000002804D0034B04199C4200D810BD02482D
:101F8000FFF790FE00000420643A0010014804218D
:101F9000014B184770020020511D0010014B1B68B7
:101FA0001847000070020020014B5B6818470000D2
:101FB00070020020F0B546464F46D646C0B5437D78
:101FC00080460E001700002B4BD0002A32DD274B35
:101FD00001259A464B1E00240020994607E0335DF8
:101FE0000A2B2CD02B0001340135BB4213DA002C14
:101FF000F5D133780A2BF5D143461B7D002BF1D167
:102000004346504602211B68984728002B000134A4
:102010000135BB42EBDB874204DD4346391A1B68BE
:1020200030189847F619013E33780D3B5A42534118
:1020300042461375E0BCBA46B146A846F0BD4B46D1
:102040001B5D0D2BCED0A042DADA4346211A1B6865
:10205000301898474346504602211B68984728008D
:10206000D4E70368110030009847E3E7183B0010FD
:10207000F0B5CE46474680B583B06B460600DD1D01
:102080002870FEF7E9FF00231A4A12184B418021FD
:1020900009068B4202D30122174B5242174908000E
:1020A000884601F081FC164B81461C68002C14D038
:1020B000144F02E02469002C0FD02368002BF9D0C4
:1020C0003B68002B01D0A342F4D12000012229005B
:1020D000FFF770FF2469002CEFD14B46002B05D190
:1020E000300003B0C0BCB946B046F0BD404601F078
:1020F00043FCF5E740420F00FFFFFF7FF00A00209E
:102100001C0F0020200F0020F0B5DE4657464E463B
:102110004546E0B585B0070001F0CEFA0600FEF7AF
:102120009BFF00232B4A12184B41802109068B424A
:1021300002D30122284B5242284908008B4601F065
:1021400033FC274B01901C689A46002C3BD0254B52
:10215000984602ABDD1D0A23994602E02469002C53
:1021600017D02368002BF9D043461B68002B01D001
:10217000A342F3D1200032003900FFF71BFF4B468A
:102180002000012229002B70FFF714FF2469002C86
:10219000E7D1019B002B18D153461C68002C06D0B8
:1021A0006368002B0BD098472469002CF8D13000CD
:1021B00005B0F0BCBB46B246A946A046F0BD2469B6
:1021C000002CEDD1F3E70028F1D0584601F0D4FB04
:1021D000E2E7C04640420F00FFFFFF7FF00A002009
:1021E0001C0F0020200F00200A4A1368002B05D185
:1021F0000CE01A001B691032002B07D09842F8D16E
:10220000002902D103691360016170470029FCD0E5
:102210001060FAE71C0F002010B500F0CFF8012085
:1022200010BDC046F0B5002915DD0E4B0D271A680C
:102230000D4B0E4CD3185D426B41451820215B00BD
:102240001E5F0478A64207D093691942FCD1013081
:102250001460A842F5D1F0BD93691942FCD1176012
:10226000F2E7C0465C0F00200080FCBF580F002042
:1022700030B504000D1E30DD00201021204B013C44
:102280001A689369194217D1013093691942FCD138
:10229000136823548542F4D11A4B1B68002B09D0D4
:1022A000502338219363536B3432194080235B01F0
:1022B0001343196028000FE0124B1B68002B09D054
:1022C000502338219363536B3432194080235B01D0
:1022D0001A431160002810D030BD0A4B1B68002B38
:1022E0000BD050223821064B1B689A635A6B34334B
:1022F0001140802252011343196003204042EBE752
:102300005C0F0020D40E0020064B10B51B68002B7C
:1023100006D00021044A12689163044A1068984765
:1023200010BDC046D40E00205C0F0020D80E002047
:102330001D4BF0B51A68C64698461C4B0E00D318C4
:1023400059424B411A4F14331C00050000B53B683D
:10235000002807D0002B11D0164B3D601E6080BCBA
:10236000B846F0BD002BF7D0906300212000FEF7A7
:10237000D3F820001049FEF713F9EDE720000E49CD
:10238000FEF7E4F801212000FEF7C6F8434650228C
:1023900038211B689A635A6B3433114080225201F2
:1023A00013431960D8E7C0465C0F00200080FCBFD3
:1023B000D40E0020D80E0020092300100C4B10B5BD
:1023C0001B780C4B0C4C1B780C4B0221002023601B
:1023D000FEF716F802210120FEF712F8E12120682D
:1023E0004902FFF72DF901210548FFF7FDFE10BD59
:1023F000C43F0010C03F00105C0F002000400340AD
:1024000080020020F0B54E4681464E4B45464B4477
:102410005A4253418022DE465746920294465B421E
:10242000E0B51B0C484A1B0463441360474A0D0087
:10243000474983B0136018008A689043FBD1062097
:10244000FFF726FB4B465A6802231A4001920422EA
:102450004A449346C0225946920111430B608A4672
:102460008021804649008C4641460220A846EF0D57
:102470006E02AB0DAA02009104E0009CA5425ED85A
:10248000604553D0010015001C00023092197B41B9
:10249000002CF2D0009B454698465B468024AB4614
:1024A0000D000E02761A640000932700013C002CF8
:1024B00040D031004046FFF76DFC761B8345F4D2D7
:1024C000009B29009B466F4324024B4619611B6801
:1024D0004A465C40FF231B021C4080235B011343E0
:1024E000802259460198920111431C6008604846B9
:1024F00055464468022028604D462E6807256E40E8
:10250000C83535401D604B4624331A43032304402D
:102510000C601360086039004046FFF73BFC03B0D5
:10252000F0BCBB46B246A946A046F0BD45460100F8
:10253000A046B2E7009B29009B462F00C5E7454611
:10254000A046AAE70040FCBF00E0004000F00040C9
:1025500000C00040F8B5DE4657464E464546834625
:10256000E0B505200C00FFF793FA06006008210093
:102570008019FFF70FFC43009846804407000521AF
:102580004046FFF707FC3B1A9A46204B81467000F5
:1025900080199C4234D81E49FFF7FCFB451C5B4662
:1025A0001C6800230422E3662368012053400232A2
:1025B0001A4080235B0123431A605346E3614B4674
:1025C000236243464F2B03D950214046FFF7E2FBDD
:1025D000A023E050E36F22005D4080237C322D0475
:1025E0005B0113432D0C1D60012339003000E366AD
:1025F000FFF7D0FBF0BCBB46B246A946A046F8BDEB
:102600000449FFF7C7FB451CC9E7C0463F420F001E
:102610008096980040787D01104A70B5821A534226
:102620005A41072352429A430D4B10321A600D4B08
:102630000D4C1A601500A3689D432B1EFAD1662429
:102640000268FF340571D5661460633C8833FF3C33
:10265000D5639563D450FFF77DFF70BDA0020020C5
:1026600000E0004000F0004000C0004070B5D14CD8
:102670000121208800F012FC642000F027FC0021DA
:10268000208800F00BFC642000F020FC0121208851
:1026900000F004FC642000F019FCC74D00212888DC
:1026A00000F0FCFBC54C0021208800F0F7FBAE20B9
:1026B00000F0FEFB0121208800F0F0FB28880021BB
:1026C00000F0ECFB0021208800F0E8FB002000F087
:1026D000EFFB0121208800F0E1FB2888002100F0B9
:1026E000DDFB0021208800F0D9FB102000F0E0FB8A
:1026F0000121208800F0D2FB2888002100F0CEFBC9
:102700000021208800F0CAFBB02000F0D1FB01219D
:10271000208800F0C3FB2888002100F0BFFB0021C7
:10272000208800F0BBFBDC2000F0C2FB01212088E8
:1027300000F0B4FB2888002100F0B0FB00212088C5
:1027400000F0ACFB002000F0B3FB0121208800F07A
:10275000A5FB2888002100F0A1FB0021208800F0C3
:102760009DFB812000F0A4FB0121208800F096FB56
:102770002888002100F092FB0021208800F08EFBC9
:102780006F2000F095FB0121208800F087FB28884E
:10279000002100F083FB0021208800F07FFB212036
:1027A00000F086FB0121208800F078FB28880021BA
:1027B00000F074FB0021208800F070FBA02000F0E6
:1027C00077FB0121208800F069FB2888002100F0B8
:1027D00065FB0021208800F061FBC02000F068FB51
:1027E0000121208800F05AFB2888002100F056FBC8
:1027F0000021208800F052FBA42000F059FB0121A9
:10280000208800F04BFB2888002100F047FB0021C6
:10281000208800F043FBA62000F04AFB012120881D
:1028200000F03CFB2888002100F038FB00212088C4
:1028300000F034FBA82000F03BFB0121208800F0D1
:102840002DFB2888002100F029FB0021208800F0C2
:1028500025FB3F2000F02CFB0121208800F01EFB0F
:102860002888002100F01AFB0021208800F016FBC8
:10287000D32000F01DFB0121208800F00FFB2888E9
:10288000002100F00BFB0021208800F007FB6020F6
:1028900000F00EFB0121208800F000FB28880021B9
:1028A00000F0FCFA0021208800F0F8FAD52000F0B2
:1028B000FFFA0121208800F0F1FA2888002100F0B9
:1028C000EDFA0021208800F0E9FA412000F0F0FA4A
:1028D0000121208800F0E2FA2888002100F0DEFAC9
:1028E0000021208800F0DAFAD92000F0E1FA012175
:1028F000208800F0D3FA2888002100F0CFFA0021C8
:10290000208800F0CBFA222000F0D2FA01212088A2
:1029100000F0C4FA2888002100F0C0FA00212088C5
:1029200000F0BCFADB2000F0C3FA0121208800F09F
:10293000B5FA2888002100F0B1FA0021208800F0C3
:10294000ADFA352000F0B4FA0121208800F0A6FA93
:102950002888002100F0A2FA0021208800F09EFAC9
:10296000AD2000F0A5FA0121208800F097FA288810
:10297000002100F093FA0021208800F08FFA8A20CD
:1029800000F096FA0121208800F088FAC82000F0B3
:102990009DFA2888002100F081FA0021208800F0AB
:1029A0007DFAAF2000F084FA0121208800F076FA49
:1029B00006E0C046A00E0020980E0020940E0020D5
:1029C00070BDC046F8B5CE4647462A4E80B50021B8
:1029D000308800F063FA284D0021288800F05EFA64
:1029E000B02000F065FA0121288800F057FA0F2383
:1029F0009946224B3F2798460021308800F04EFA36
:102A00000021288800F04AFA4846384000F050FA81
:102A10000121288800F042FA0021308800F03EFAB7
:102A20000021288800F03AFA38091030C0B200F0CE
:102A30003FFA0121288800F031FA10240121308862
:102A400000F02CFA0021288800F028FA013C002030
:102A500000F02EFAA4B20121288800F01FFA002C01
:102A6000ECD1013FBFB24745C6D1C0BCB946B04664
:102A7000F8BDC046980E0020940E0020FFFF000015
:102A8000F8B5DE4657464E4645463C4BE0B5040099
:102A9000002118889A4600F001FA394E002130884A
:102AA00000F0FCF9B02000F003FA0121308800F0BA
:102AB000F5F9102399462F339B4616339846332752
:102AC000A14453460021188800F0E8F9002130881D
:102AD00000F0E4F95B460F20184000F0E9F901210D
:102AE000308800F0DBF953460021188800F0D6F951
:102AF0000021308800F0D2F95B4618091030C0B2CE
:102B000000F0D6F94C460121308800F0C7F9103C9E
:102B10004146237801345A005B100B408A431A4324
:102B2000D2B2930092103A40BB431343DBB21D096B
:102B30001B01DBB21D4353460121188800F0AEF99A
:102B40000021308800F0AAF9280000F0B1F9012135
:102B5000308800F0A3F9A145DAD15B46013B9BB276
:102B60009B4610239C46074BE1449B45A9D1F0BCF2
:102B7000BB46B246A946A046F8BDC046980E002006
:102B8000940E0020FFFF000070B5494CE389B42B80
:102B900044D02FD8002B06D05A2B1DD12389013BBE
:102BA0005B1A010098B2238A022B2FD0022B14D873
:102BB000002B2FD023895D1E281A80B283420BD3AD
:102BC00063898B4208D3E38A022B30D0042B3CD09C
:102BD000102B58D0412B4BD070BD032BFCD1238937
:102BE0005D1E281A658980B2013D691A89B2834247
:102BF000E6D2F1E787256D00AB42EDD16389013B59
:102C00001B1A080099B2238A022BCFD16389013B9A
:102C1000591A89B223898342D2D2DDE72389013B45
:102C2000181A638980B2013B591A89B2BBE7638ADB
:102C3000C2084B4392B207219B18802201400A41EF
:102C40002468E15C0A43E254C6E7638AC02659431C
:102C500083089BB2C9180323184040001340064163
:102C60009B01034125686C5CB44323436B54B3E779
:102C7000638A4000594323680918100A585423688E
:102C80005B185A70A8E7638A2568594343089BB2CA
:102C9000C9180123F0241840800004416B5CA34351
:102CA0001C000F2313401B01034123436B5493E784
:102CB000AC0E0020F0B54E465746DE4645469B46D4
:102CC000E0B585B003900EA803880FA80193038890
:102CD00007259A465B469888DC8805406E1EB541FC
:102CE000203A6243C608AD196A431F688946BF1877
:102CF000002C51D00293019B2B4A9B465346904691
:102D00008A460193002847D00025039E1DE08023BA
:102D100023413A78134223D143469B88B3420AD3D6
:102D20004346DB884B4506D3019A30004946FFF7FE
:102D30002BFF029B9888073C63425C4101350136BA
:102D4000ADB23F19B6B2854214D20724174B019A8F
:102D50002C409A42DBD1802323413A781342EAD0B7
:102D600043469B88B342E6D34346DB884B45E2D3D8
:102D70005A46DAE7430700D00137029B5146DA880A
:102D80004B465B1A01339BB29A4205D94B4601333D
:102D90009BB299460028B7D105B0F0BCBB46B246FD
:102DA000A946A046F0BDC046AC0E0020FFFF0000C3
:102DB00030B503AC25880E4C206002202181628151
:102DC000A581E08248070FD1C80860820020A28256
:102DD000E3812082002B04D0B42B02D00B00110021
:102DE0001A00E280A18030BDC808013080B2ECE753
:102DF000AC0E0020F0B55746DE464E464546E0B5DF
:102E000085B098460EAB1B888B4602930FAB1B8890
:102E100082460393204B170099889946814233D309
:102E2000D888584530D31278002A2DD043469B8845
:102E30005D4654461E001EE04346DB88EB18834285
:102E400001DD5D4654468C420CD885420AD8029B6F
:102E500029000193039B200000934346FFF72AFFBC
:102E600043469E887A78A4190137A4B2002A0BD071
:102E70004B469988D888A3198B42DDDD4346DB8811
:102E80005446ED18ADB2D9E705B0F0BCBB46B2462A
:102E9000A946A046F0BDC046AC0E00200123D022BA
:102EA00083401206002901D0536170479361FCE70B
:102EB00000B583B06B460122D91D0870024800F0AE
:102EC0006BFD03B000BDC0460000044010B5FDF727
:102ED000C7FF10BDF8B5CE4647460124234B80B549
:102EE0001D882800FDF7B6FA2300AB40D0252D063B
:102EF0006B621F4B1E8898463000FDF7ABFA23002B
:102F0000B3401C4F6B623E883000FDF7A3FA2300EC
:102F1000B340194E6B62338899461800FDF79AFA50
:102F20004A46230093406B623B8899461800FDF7A0
:102F300091FA4A46230093406B6233889946180001
:102F4000FDF788FA4A462300934022006B623B88D3
:102F50009A4043466A6122001B889A403388AA61DE
:102F60009C406C61C0BCB946B046F8BDA00E0020C4
:102F7000980E0020940E00208C0E0020F8B5CE464E
:102F8000474680B5FFF748F90C22364B364F1A609A
:102F9000364B043A1A600D233B60354B01321A6000
:102FA0000A23344A072691461360334A334D344C82
:102FB000013313603349053B334890462B6026604C
:102FC000FFF720FA4B4601211868FDF719FA43462E
:102FD00001211868FDF714FAFFF77CFF3868042117
:102FE000FDF70EFA3B68294A5B081E40284B1E601D
:102FF000B3009B199B00981864220261254A9446ED
:1030000080226344196852024A408021120C49010F
:103010000B4312041A60C8239B004360012302681B
:10302000014393430B601C481C49FFF7F5FA2868DD
:103030000321FDF7E5F920680321FDF7E1F9286890
:1030400000220121FDF7F4F9002201212068FDF79B
:10305000EFF91348FFF758F80020C0BCB946B04656
:10306000F8BDC046A00E00208C0E0020980E002057
:10307000940E0020900E00209C0E0020A80E002030
:10308000A40E002080969800000004400000054037
:10309000440F00200C00054098020020E09304003B
:1030A000DC3A0010030010B50A0003490868190053
:1030B00000F004F810BDC046B002002010B5514326
:1030C00000F02AF8041E0ED00300083B5A680323C0
:1030D0009A43043A242A15D80300132A05D800225B
:1030E0001A605A609A60200010BD00210833016008
:1030F00041601B2AF3D98160C160242A06D00300F5
:103100001033ECE70021FEF749FFECE70300016113
:1031100018334161E3E7C046F0B54E464546DE460A
:103120005746E0B50D000B35060083B0162D22D8AA
:10313000102900D9B2E000F0A9FA102518230220C6
:10314000CC4FFB181A005C68083A944200D1B5E0F5
:10315000032362689A431300E268A168CA60916021
:103160000122E318596830000A435A6000F090FACF
:103170002000083095E007239D4300D58EE0A9424A
:1031800000D98BE000F082FAFC235B009D4200D264
:10319000A1E1680A00D18BE0042800D974E138234A
:1031A0009846A80980443930C100B24F79184C685C
:1031B0000839A1420ED003239C4604E0002ACBDA52
:1031C000E468A14206D06246636893435A1B0F2A03
:1031D000F4DD40463A003C690832944200D178E080
:1031E00003236168994389460B00491B0F2900DDC1
:1031F00075E17A613A610029B2DA80229200914544
:1032000000D310E15909DA0801238B40D200796814
:10321000D2190B4391687B60E260A1609460CC603E
:10322000012182109140994259D80B4205D10322C5
:103230009043490004300B42FBD003239846C3005F
:103240009946B944CC4682466346DC68A44507D11A
:1032500026E1002A00DB2FE1E468A44500D11FE14C
:103260004246636893435A1B0F2AF2DD01208046D1
:10327000611905436560A068E5680837C560A86006
:1032800040461043F960B9604860CF6030008F60FD
:10329000E25000F0FDF92000083002E00C2300208D
:1032A000336003B0F0BCBB46B246A946A046F0BDB1
:1032B00080213F2340209846890076E7DC68023071
:1032C000A34200D044E73A003C690832944200D05F
:1032D00086E701217B68821091409942A5D903239A
:1032E000BC6862689A439146954203D8531B0F2BE2
:1032F00000DD8AE023004B445F4A01935F4B934615
:103300009A4612681B68EB18013200D136E15C4A1C
:10331000944663441B0B1B0300933000009900F09C
:10332000B9F903008046013300D1F3E0019B8342E9
:1033300000D9EDE052460098526803009446514689
:1033400063444B6001991A00414500D14BE15B4653
:103350001B68013300D150E1434601995B1A9A186A
:1033600053465A600723424641461A400192194289
:1033700000D10DE108239846881A424B00998044F9
:1033800041449B1A5B1A1B051B0D0091300019006C
:103390009B4600F07FF9431C00D14AE14346C01A26
:1033A00003005B440093534652465B6801215B4433
:1033B000536042464046BA60009A0A434260BC42AB
:1033C00000D11EE14A460F2A00D81CE107200C3A22
:1033D000824360680140052011436160A118486084
:1033E00088600F2A00D92FE1424644465268514670
:1033F000C96A994201D25146CB625146096B994242
:1034000000D389E051460B6386E001222900134373
:103410001143651961603000BD606B6000F038F9E0
:10342000200008303DE75A0A042A6BD9142A00D933
:10343000BEE011005C325B31D20008235B429C4647
:10344000BA18944463469A6803239846944500D179
:1034500097E0434651689943494502D9926894459B
:10346000F7D1D3689C467B686146A260E1608C60BE
:10347000D460D5E6E8060020E0060020540E0020C7
:103480000F10000008100000142852D9542800D949
:1034900096E06E239846280B80446F30C10084E686
:1034A00008239B46073BDC449B46DA44434652468E
:1034B000134200D0C8E64CE00122E31859683000FE
:1034C0000A435A60E368A268D3609A6000F0E0F8AB
:1034D00020000830E5E62B00E808083330E6012339
:1034E00060191D43656078613861C26082601A00AE
:1034F0004B460A4342603000E15000F0C9F820001A
:103500000830CEE69A09110039323831D20094E7FA
:10351000BC4260D0BC68626803239A43531B954247
:1035200002D80F2B00DD70E7300000F0B1F800206A
:10353000B7E65B23984680445C30C10035E608233B
:103540005B429C46E1444B469B6801384B4500D0AA
:1035500097E043460342F2D17B688B437B6049008E
:10356000994200D9BBE6002904D1B8E6042294466A
:103570004900E2440B42F9D0504660E61033009314
:10358000CBE68910023B8B4079680B437B606BE78D
:10359000009B300043445B421B051B0D19009B46FA
:1035A00000F078F8431C00D0F8E600239B46FAE6CA
:1035B000542A2AD81A0B11006F326E31D2003CE720
:1035C000AA235B0098422AD8DD3B9846E80B80444A
:1035D0007830C100E9E553465B68009A9C46534643
:1035E00062445A60B3E6090500D0B0E60200BC6848
:1035F0004A4401310A436260F9E65B4642461A607A
:10360000B0E64446F3E641608EE7AA2149008A42CB
:1036100024D8DA0B110078327731D2000DE71A4B3B
:10362000984224D87C239846A80C80447D30C10061
:10363000BBE5009A019B94464246083B63449B1AB3
:10364000009300239B46AEE621003000083100F0D5
:10365000AFF85346BC685B686268C8E60A498A42AC
:103660000BD89A0C11007D327C31D200E5E6FE21A8
:103670007E237F209846890097E5FE227E219200D6
:10368000DBE67B686BE7C046540500007047C04628
:103690007047C046002370B5064D040008002B603B
:1036A000FEF7E2FA431C00D070BD2B68002BFBD064
:1036B0002360F9E7880E002010B583070AD00300C5
:1036C000032102E001330B4205D01A78002AF9D118
:1036D000181A10BD030019680C4A0D4C8A188A4349
:1036E00022420FD15968094A04338A188A43224278
:1036F00008D15968054A04338A188A432242F1D016
:1037000000E001331A78002AFBD1E1E7FFFEFEFE5C
:1037100080808080F8B50C000500FFF7B7FF204FD0
:10372000BB685E6803239E431E4B341B9C46644467
:10373000240B013C113324039C4207DB00212800A9
:10374000FFF7A8FFBB689B19984204D02800FFF739
:103750009FFF0020F8BD28006142FFF79BFF431C3C
:103760000DD00122BB68361B16435E600E4B28004D
:103770001A68141B1C60FFF78BFF0120EAE7002189
:103780002800FFF787FFBA68831A0F2BDEDD074991
:103790000968401A0449086001210B435360D5E7CA
:1037A000E8060020EF0F0000580E0020E006002081
:1037B000F0B5C64605000C0000B500294FD0FFF754
:1037C00065FF210008394C68012622000320B2431E
:1037D0008F187B688343624898468368BB426AD0EF
:1037E00043467B6026421ED108239C460C688444D5
:1037F000091B12198C6864454FD0CB68E3609C604C
:103800004346FC186468344211D1BB68554C4244AD
:10381000A34200D17EE0FC68DC60A3600123134377
:103820004B608A5006E0FC1864683442EDD01643C1
:103830004E603A6080239B009A4213D25409D30809
:103840000122A2404468DB002243426018188368CA
:10385000C8608B608160D9602800FFF719FF80BCC9
:10386000B846F0BD530A042B3ED8940926003934DB
:103870003836E40004192368083C03279C4242D0F0
:103880005868B843904202D99B689C42F8D1DC68E2
:10389000CC608B60A160D960DEE74346F8184068D1
:1038A000304257D1FB68B86842441643C360986001
:1038B0004E608A50D0E713004344264206D10A687E
:1038C000891A8C689B18CA68E260946001221A43C6
:1038D0004A60254A816012689A42BDD8234B28006D
:1038E0001968FFF717FFB7E7142B07D9542B1AD81D
:1038F000140B26006F346E36E400BBE71E005C3309
:103900005B36DC00B6E70122B610B24046683243AF
:103910004260BDE7D9609960CB608B60012313439F
:103920004B608A5098E7AA246400A34205D8D40BC0
:10393000260078347736E4009CE70D4CA34205D886
:10394000940C26007D347C36E40093E7FE247E262A
:10395000A4008FE7330013434B603A607CE7C04616
:10396000E8060020F0060020E4060020540E0020A7
:1039700054050000F8B5C04601B40248844601BCB5
:10398000604700BF5D01002001B40248844601BCCD
:10399000604700BFD101002001B40248844601BC49
:1039A000604700BF8501002001B40248844601BC85
:0839B000604700BFC1000020C8
:1039B800556E61626C6520746F20696E6974204F62
:1039C8004C45440D00000000496E6974696E67201B
:1039D800496D616765206275666665722E2E2E00D8
:1039E8004661696C656420746F206170706C792021
:1039F800666F7220626C61636B206D656D6F7279A2
:103A08002E2E2E0D0000000048656C6C6F2C207760
:103A18006F726C642100000048617264776172659E
:103A280020616C61726D20256420616C726561642F
:103A38007920636C61696D65640000000A2A2A2A8E
:103A48002050414E4943202A2A2A0A000A00000031
:103A58004861726420617373657274004F757420D5
:103A68006F66206D656D6F727900000052656C6538
:103A780061736500626F6F74325F77323571303809
:103A880030000000312E352E310000007069636F60
:103A9800000000006D61696E000000005365702031
:103AA800203320323032330055415254207374642D
:103AB800696E000055415254207374646F75740028
:103AC8005541525420737464696E202F20737464B6
:103AD8006F7574004445565F4D6F64756C655F493A
:103AE8006E6974204F4B200D0000000006005250F4
:103AF800D3F07542743A001006005250E182887F74
:103B08007C3A001006005250BBFF3CB6943A0010B5
:103B18000D0A00000600525053B4F4A1C83A001030
:103B28000800525092000000000000000000000051
:103B3800000000000010101010100000100000001D
:103B4800006C484800000000000000000014142821
:103B58007C287C28505000000010384040384870BD
:103B680010100000002050200C70081408000000FD
:103B780000000018202054483400000000101010E5
:103B880010000000000000000008081010101010BD
:103B9800100808000020201010101010102020001D
:103BA80000107C1028280000000000000000101001
:103BB80010FE1010100000000000000000000018A7
:103BC8001030200000000000007C00000000000011
:103BD800000000000000003030000000000404086D
:103BE8000810102020400000003844444444444455
:103BF8003800000000301010101010107C00000079
:103C080000384404081020447C00000000384404B4
:103C18001804044438000000000C141424447E04E2
:103C28000E000000003C2020380404443800000046
:103C3800001C20407844444438000000007C4404C0
:103C48000808081010000000003844443844444470
:103C58003800000000384444443C04087000000068
:103C68000000003030000030300000000000001874
:103C7800180000183020000000000C106080601050
:103C88000C000000000000007C007C000000000028
:103C98000000C02018041820C000000000001824EC
:103CA80004081000300000003844444C54544C4080
:103CB800443800000030102828287C44EE0000001A
:103CC80000F8444478444444F8000000003C444070
:103CD800404040443800000000F048444444444810
:103CE800F000000000FC445070504044FC0000000C
:103CF800007E22283828202070000000003C444024
:103D0800404E44443800000000EE44447C4444449F
:103D1800EE000000007C1010101010107C00000055
:103D2800003C0808084848483000000000EE4448B5
:103D380050704844E6000000007020202020242411
:103D48007C00000000EE6C6C54544444EE0000000B
:103D580000EE64645454544CEC00000000384444B1
:103D680044444444380000000078242424382020A7
:103D7800700000000038444444444444381C0000A7
:103D880000F8444444784844E200000000344C40C1
:103D9800380404645800000000FE9210101010103F
:103DA8003800000000EE4444444444443800000015
:103DB80000EE4444282828101000000000EE444477
:103DC800545454542800000000C6442810102844B5
:103DD800C600000000EE442828101010380000002B
:103DE800007C4408101020447C000000003820208B
:103DF80020202020202038000040202020101008FB
:103E080008080000003808080808080808083800EA
:103E1800001010284400000000000000000000000E
:103E280000000000000000FE001008000000000074
:103E38000000000000000038443C44443E000000FC
:103E480000C0405864444444F80000000000003CAE
:103E58004440404438000000000C04344C444444BE
:103E68003E00000000000038447C40403C00000058
:103E7800001C207C202020207C0000000000003650
:103E88004C4444443C04380000C040586444444412
:103E9800EE00000000100070101010107C000000F0
:103EA80000100078080808080808700000C0405C86
:103EB80048705048DC00000000301010101010103E
:103EC8007C000000000000E854545454FE00000038
:103ED800000000D864444444EE00000000000038AC
:103EE8004444444438000000000000D8644444447A
:103EF8007840E000000000364C4444443C040E0086
:103F08000000006C302020207C0000000000003CF5
:103F180044380444780000000000207C202020223F
:103F28001C000000000000CC4444444C3600000053
:103F3800000000EE4444282810000000000000EEB5
:103F48004454545428000000000000CC4830304845
:103F5800CC000000000000EE44242818101078005F
:103F68000000007C481020447C000000000810106D
:103F78001010201010100800001010101010101051
:103F88001010000000201010101008101010200051
:0C3F9800000000000024580000000000A1
:103FA400F43A0010003B0010880200100C3B001093
:103FB40094020010A0020010AC020010283B001074
:043FC4001C3B001092
:103FC800F0B5C646150000B504001E000268EFF300
:103FD800108172B61368002BFCD0BFF35F8F0423E7
:103FE800E356002B2DDB2268BFF35F8F00201060A3
:103FF80081F31088D0221206127852B290469A4263
:1040080003D1002080BCB846F0BD00270BE0236830
:10401800BFF35F8F1F6081F310882800310000F024
:104028005BF80028EDD12268EFF3108172B61368AF
:10403800002BFCD0BFF35F8F23797F2BE7D9434652
:1040480002E0D0231B061B6823712368BFF35F8F30
:1040580000221A6081F310880120D3E70268EFF389
:10406800108172B61368002BFCD0BFF35F8FFF235B
:1040780003710368BFF35F8F00221A6081F3108811
:1040880040BF704730B50400101E0AD00A000D1852
:104098000221E3681942FCD013780132A3609542EB
:1040A800F7D1E3685B0704D50421A368E3681942E4
:1040B800FBD11021E3681942FCD1E3685B0704D502
:1040C8000421A368E3681942FBD10123236230BDB0
:1040D8007047C0460000000001B40248844601BC95
:1040E800604700BF990E001010000000000000009B
:1040F80000000100000000000000000000000200B5
:1041080000000000000000000000030000000000A4
:10411800000000000000FF000000000001B5486832
:1041280001318E460047704609380149884701BD6C
:10413800650700104C02002000000000380B00202A
:10414800DC0E00200000000000000000EC0E002043
:104158000000000000000000100000000000000047
:10416800503300004C330000543300005233000039
:104178004D5300004D430000533400004334000009
:1041880025220010000000007122001031230010C9
:104198000000000000010000008004400000000052
:1041A8000040044000000000303B001007000C00F5
:1041B800B80200200000000000000000A405002054
:1041C8000C0600207406002000000000000000001B
:1041D80000000000000000000000000000000000D7
:1041E80000000000000000000000000000000000C7
:1041F80000000000000000000000000000000000B7
:1042080000000000000000000000000000000000A6
:104218000000000000000000000000000000000096
:104228000000000000000000000000000000000086
:104238000000000000000000000000000000000076
:104248000000000000000000000000000000000066
:104258000000000000000000000000000000000056
:1042680001000000000000000E33CDAB34126DE6F3
:10427800ECDE05000B00000000000000000000005C
:104288000000000000000000000000000000000026
:104298000000000000000000000000000000000016
:1042A8000000000000000000000000000000000006
:1042B80000000000000000000000000000000000F6
:1045E800FFFFFFFF000002000000000000000000C5
:1045F800E8060020E8060020F0060020F00600206B
:10460800F8060020F8060020000700200007002018
:1046180008070020080700201007002010070020C6
:104628001807002018070020200700202007002076
:104638002807002028070020300700203007002026
:1046480038070020380700204007002040070020D6
:104658004807002048070020500700205007002086
:104668005807002058070020600700206007002036
:1046780068070020680700207007002070070020E6
:104688007807002078070020800700208007002096
:104698008807002088070020900700209007002046
:1046A8009807002098070020A0070020A0070020F6
:1046B800A8070020A8070020B0070020B0070020A6
:1046C800B8070020B8070020C0070020C007002056
:1046D800C8070020C8070020D0070020D007002006
:1046E800D8070020D8070020E0070020E0070020B6
:1046F800E8070020E8070020F0070020F007002066
:10470800F8070020F8070020000800200008002013
:1047180008080020080800201008002010080020C1
:104728001808002018080020200800202008002071
:104738002808002028080020300800203008002021
:1047480038080020380800204008002040080020D1
:104758004808002048080020500800205008002081
:104768005808002058080020600800206008002031
:1047780068080020680800207008002070080020E1
:104788007808002078080020800800208008002091
:104798008808002088080020900800209008002041
:1047A8009808002098080020A0080020A0080020F1
:1047B800A8080020A8080020B0080020B0080020A1
:1047C800B8080020B8080020C0080020C008002051
:1047D800C8080020C8080020D0080020D008002001
:1047E800D8080020D8080020E0080020E0080020B1
:1047F800E8080020E8080020F0080020F008002061
:10480800F8080020F808002000090020000900200E
:1048180008090020080900201009002010090020BC
:10482800180900201809002020090020200900206C
:10483800280900202809002030090020300900201C
:1048480038090020380900204009002040090020CC
:10485800480900204809002050090020500900207C
:10486800580900205809002060090020600900202C
:1048780068090020680900207009002070090020DC
:10488800780900207809002080090020800900208C
:10489800880900208809002090090020900900203C
:1048A8009809002098090020A0090020A0090020EC
:1048B800A8090020A8090020B0090020B00900209C
:1048C800B8090020B8090020C0090020C00900204C
:1048D800C8090020C8090020D0090020D0090020FC
:1048E800D8090020D8090020E0090020E0090020AC
:1048F800E8090020E8090020F0090020F00900205C
:10490800F8090020F8090020000A0020000A002009
:10491800080A0020080A0020100A0020100A0020B7
:10492800180A0020180A0020200A0020200A002067
:10493800280A0020280A0020300A0020300A002017
:10494800380A0020380A0020400A0020400A0020C7
:10495800480A0020480A0020500A0020500A002077
:10496800580A0020580A0020600A0020600A002027
:10497800680A0020680A0020700A0020700A0020D7
:10498800780A0020780A0020800A0020800A002087
:10499800880A0020880A0020900A0020900A002037
:1049A800980A0020980A0020A00A0020A00A0020E7
:1049B800A80A0020A80A0020B00A0020B00A002097
:1049C800B80A0020B80A0020C00A0020C00A002047
:1049D800C80A0020C80A0020D00A0020D00A0020F7
:1049E800D80A0020D80A0020E00A0020E00A0020A7
:1049F80000000000000000008D1F0010211D0010A5
:0C4A0800E11D0010D91E00103103001049
:04000005100001E9FD
:00000001FF
